{
  "_format": "hh-sol-artifact-1",
  "contractName": "ERC20Staking",
  "sourceName": "contracts/ERC20Staking.sol",
  "abi": [
    {
      "inputs": [
        {
          "internalType": "contract IERC20",
          "name": "_token",
          "type": "address"
        }
      ],
      "stateMutability": "nonpayable",
      "type": "constructor"
    },
    {
      "anonymous": false,
      "inputs": [
        {
          "indexed": false,
          "internalType": "address",
          "name": "account",
          "type": "address"
        },
        {
          "indexed": false,
          "internalType": "uint256",
          "name": "amount",
          "type": "uint256"
        }
      ],
      "name": "Claim",
      "type": "event"
    },
    {
      "anonymous": false,
      "inputs": [
        {
          "indexed": false,
          "internalType": "address",
          "name": "account",
          "type": "address"
        },
        {
          "indexed": false,
          "internalType": "uint256",
          "name": "amount",
          "type": "uint256"
        }
      ],
      "name": "Compound",
      "type": "event"
    },
    {
      "anonymous": false,
      "inputs": [
        {
          "indexed": false,
          "internalType": "address",
          "name": "account",
          "type": "address"
        },
        {
          "indexed": false,
          "internalType": "uint256",
          "name": "amount",
          "type": "uint256"
        }
      ],
      "name": "Deposit",
      "type": "event"
    },
    {
      "anonymous": false,
      "inputs": [
        {
          "indexed": false,
          "internalType": "address",
          "name": "account",
          "type": "address"
        },
        {
          "indexed": false,
          "internalType": "uint256",
          "name": "amount",
          "type": "uint256"
        }
      ],
      "name": "Withdraw",
      "type": "event"
    },
    {
      "inputs": [
        {
          "internalType": "address",
          "name": "",
          "type": "address"
        }
      ],
      "name": "balanceOf",
      "outputs": [
        {
          "internalType": "uint256",
          "name": "",
          "type": "uint256"
        }
      ],
      "stateMutability": "view",
      "type": "function"
    },
    {
      "inputs": [],
      "name": "claim",
      "outputs": [],
      "stateMutability": "nonpayable",
      "type": "function"
    },
    {
      "inputs": [
        {
          "internalType": "address",
          "name": "",
          "type": "address"
        }
      ],
      "name": "claimed",
      "outputs": [
        {
          "internalType": "uint256",
          "name": "",
          "type": "uint256"
        }
      ],
      "stateMutability": "view",
      "type": "function"
    },
    {
      "inputs": [],
      "name": "compound",
      "outputs": [],
      "stateMutability": "nonpayable",
      "type": "function"
    },
    {
      "inputs": [
        {
          "internalType": "uint256",
          "name": "_amount",
          "type": "uint256"
        }
      ],
      "name": "deposit",
      "outputs": [],
      "stateMutability": "nonpayable",
      "type": "function"
    },
    {
      "inputs": [
        {
          "internalType": "address",
          "name": "",
          "type": "address"
        }
      ],
      "name": "lastUpdated",
      "outputs": [
        {
          "internalType": "uint256",
          "name": "",
          "type": "uint256"
        }
      ],
      "stateMutability": "view",
      "type": "function"
    },
    {
      "inputs": [
        {
          "internalType": "address",
          "name": "account",
          "type": "address"
        }
      ],
      "name": "rewards",
      "outputs": [
        {
          "internalType": "uint256",
          "name": "",
          "type": "uint256"
        }
      ],
      "stateMutability": "view",
      "type": "function"
    },
    {
      "inputs": [],
      "name": "rewardsPerHour",
      "outputs": [
        {
          "internalType": "uint256",
          "name": "",
          "type": "uint256"
        }
      ],
      "stateMutability": "view",
      "type": "function"
    },
    {
      "inputs": [],
      "name": "token",
      "outputs": [
        {
          "internalType": "contract IERC20",
          "name": "",
          "type": "address"
        }
      ],
      "stateMutability": "view",
      "type": "function"
    },
    {
      "inputs": [],
      "name": "totalRewards",
      "outputs": [
        {
          "internalType": "uint256",
          "name": "",
          "type": "uint256"
        }
      ],
      "stateMutability": "view",
      "type": "function"
    },
    {
      "inputs": [],
      "name": "totalStaked",
      "outputs": [
        {
          "internalType": "uint256",
          "name": "",
          "type": "uint256"
        }
      ],
      "stateMutability": "view",
      "type": "function"
    },
    {
      "inputs": [
        {
          "internalType": "uint256",
          "name": "amount",
          "type": "uint256"
        }
      ],
      "name": "withdraw",
      "outputs": [],
      "stateMutability": "nonpayable",
      "type": "function"
    }
  ],
  "bytecode": "0x60c060405261271060a090815250600080553480156200001e57600080fd5b5060405162001620380380620016208339818101604052810190620000449190620000fd565b8073ffffffffffffffffffffffffffffffffffffffff1660808173ffffffffffffffffffffffffffffffffffffffff1681525050506200012f565b600080fd5b600073ffffffffffffffffffffffffffffffffffffffff82169050919050565b6000620000b18262000084565b9050919050565b6000620000c582620000a4565b9050919050565b620000d781620000b8565b8114620000e357600080fd5b50565b600081519050620000f781620000cc565b92915050565b6000602082840312156200011657620001156200007f565b5b60006200012684828501620000e6565b91505092915050565b60805160a0516114a8620001786000396000818161054301526106f5015260008181610375015281816104a301528181610575015281816106cc01526107ca01526114a86000f3fe608060405234801561001057600080fd5b50600436106100b45760003560e01c8063817b1cd211610071578063817b1cd21461018d5780638e7271fa146101ab578063b6b55f25146101c9578063c884ef83146101e5578063f69e204614610215578063fc0c546a1461021f576100b4565b80630700037d146100b95780630a6f93e6146100e95780630e15561a146101195780632e1a7d4d146101375780634e71d92d1461015357806370a082311461015d575b600080fd5b6100d360048036038101906100ce9190610dc8565b61023d565b6040516100e09190610e0e565b60405180910390f35b61010360048036038101906100fe9190610dc8565b61024f565b6040516101109190610e0e565b60405180910390f35b610121610267565b60405161012e9190610e0e565b60405180910390f35b610151600480360381019061014c9190610e55565b610276565b005b61015b6103f5565b005b61017760048036038101906101729190610dc8565b610523565b6040516101849190610e0e565b60405180910390f35b61019561053b565b6040516101a29190610e0e565b60405180910390f35b6101b3610541565b6040516101c09190610e0e565b60405180910390f35b6101e360048036038101906101de9190610e55565b610565565b005b6101ff60048036038101906101fa9190610dc8565b6106a8565b60405161020c9190610e0e565b60405180910390f35b61021d6106c0565b005b6102276106ca565b6040516102349190610ee1565b60405180910390f35b6000610248826106ee565b9050919050565b60026020528060005260406000206000915090505481565b60006102716107c4565b905090565b61027e610871565b80600160003373ffffffffffffffffffffffffffffffffffffffff1673ffffffffffffffffffffffffffffffffffffffff168152602001908152602001600020541015610300576040517f08c379a00000000000000000000000000000000000000000000000000000000081526004016102f790610f59565b60405180910390fd5b80600160003373ffffffffffffffffffffffffffffffffffffffff1673ffffffffffffffffffffffffffffffffffffffff168152602001908152602001600020600082825461034f9190610fa8565b92505081905550806000808282546103679190610fa8565b925050819055506103b933827f000000000000000000000000000000000000000000000000000000000000000073ffffffffffffffffffffffffffffffffffffffff166109c29092919063ffffffff16565b7f884edad9ce6fa2440d8a54cc123490eb96d2768479d49ff9c7366125a942436433826040516103ea929190610feb565b60405180910390a150565b6000610400336106ee565b905080600360003373ffffffffffffffffffffffffffffffffffffffff1673ffffffffffffffffffffffffffffffffffffffff16815260200190815260200160002060008282546104519190611014565b9250508190555042600260003373ffffffffffffffffffffffffffffffffffffffff1673ffffffffffffffffffffffffffffffffffffffff168152602001908152602001600020819055506104e733827f000000000000000000000000000000000000000000000000000000000000000073ffffffffffffffffffffffffffffffffffffffff166109c29092919063ffffffff16565b7f47cee97cb7acd717b3c0aa1435d004cd5b3c8c57d70dbceb4e4458bbd60e39d43382604051610518929190610feb565b60405180910390a150565b60016020528060005260406000206000915090505481565b60005481565b7f000000000000000000000000000000000000000000000000000000000000000081565b61056d610871565b6105ba3330837f000000000000000000000000000000000000000000000000000000000000000073ffffffffffffffffffffffffffffffffffffffff16610a48909392919063ffffffff16565b80600160003373ffffffffffffffffffffffffffffffffffffffff1673ffffffffffffffffffffffffffffffffffffffff16815260200190815260200160002060008282546106099190611014565b9250508190555042600260003373ffffffffffffffffffffffffffffffffffffffff1673ffffffffffffffffffffffffffffffffffffffff16815260200190815260200160002081905550806000808282546106659190611014565b925050819055507fe1fffcc4923d04b559f4d29a8bfc6cda04eb5b0d3c460751c2402c5c5cc9109c338260405161069d929190610feb565b60405180910390a150565b60036020528060005260406000206000915090505481565b6106c8610871565b565b7f000000000000000000000000000000000000000000000000000000000000000081565b6000610e107f000000000000000000000000000000000000000000000000000000000000000061071e9190611048565b600160008473ffffffffffffffffffffffffffffffffffffffff1673ffffffffffffffffffffffffffffffffffffffff16815260200190815260200160002054600260008573ffffffffffffffffffffffffffffffffffffffff1673ffffffffffffffffffffffffffffffffffffffff16815260200190815260200160002054426107a99190610fa8565b6107b39190611048565b6107bd91906110b9565b9050919050565b600080547f000000000000000000000000000000000000000000000000000000000000000073ffffffffffffffffffffffffffffffffffffffff166370a08231306040518263ffffffff1660e01b815260040161082191906110ea565b602060405180830381865afa15801561083e573d6000803e3d6000fd5b505050506040513d601f19601f82011682018060405250810190610862919061111a565b61086c9190610fa8565b905090565b600061087c336106ee565b905080600360003373ffffffffffffffffffffffffffffffffffffffff1673ffffffffffffffffffffffffffffffffffffffff16815260200190815260200160002060008282546108cd9190611014565b9250508190555042600260003373ffffffffffffffffffffffffffffffffffffffff1673ffffffffffffffffffffffffffffffffffffffff1681526020019081526020016000208190555080600160003373ffffffffffffffffffffffffffffffffffffffff1673ffffffffffffffffffffffffffffffffffffffff16815260200190815260200160002060008282546109679190611014565b925050819055508060008082825461097f9190611014565b925050819055507f169f1815ebdea059aac3bb00ec9a9594c7a5ffcb64a17e8392b5d84909a1455633826040516109b7929190610feb565b60405180910390a150565b610a438363a9059cbb60e01b84846040516024016109e1929190610feb565b604051602081830303815290604052907bffffffffffffffffffffffffffffffffffffffffffffffffffffffff19166020820180517bffffffffffffffffffffffffffffffffffffffffffffffffffffffff8381831617835250505050610ad1565b505050565b610acb846323b872dd60e01b858585604051602401610a6993929190611147565b604051602081830303815290604052907bffffffffffffffffffffffffffffffffffffffffffffffffffffffff19166020820180517bffffffffffffffffffffffffffffffffffffffffffffffffffffffff8381831617835250505050610ad1565b50505050565b6000610b33826040518060400160405280602081526020017f5361666545524332303a206c6f772d6c6576656c2063616c6c206661696c65648152508573ffffffffffffffffffffffffffffffffffffffff16610b989092919063ffffffff16565b9050600081511115610b935780806020019051810190610b5391906111b6565b610b92576040517f08c379a0000000000000000000000000000000000000000000000000000000008152600401610b8990611255565b60405180910390fd5b5b505050565b6060610ba78484600085610bb0565b90509392505050565b606082471015610bf5576040517f08c379a0000000000000000000000000000000000000000000000000000000008152600401610bec906112e7565b60405180910390fd5b6000808673ffffffffffffffffffffffffffffffffffffffff168587604051610c1e9190611378565b60006040518083038185875af1925050503d8060008114610c5b576040519150601f19603f3d011682016040523d82523d6000602084013e610c60565b606091505b5091509150610c7187838387610c7d565b92505050949350505050565b60608315610cdf576000835103610cd757610c9785610cf2565b610cd6576040517f08c379a0000000000000000000000000000000000000000000000000000000008152600401610ccd906113db565b60405180910390fd5b5b829050610cea565b610ce98383610d15565b5b949350505050565b6000808273ffffffffffffffffffffffffffffffffffffffff163b119050919050565b600082511115610d285781518083602001fd5b806040517f08c379a0000000000000000000000000000000000000000000000000000000008152600401610d5c9190611450565b60405180910390fd5b600080fd5b600073ffffffffffffffffffffffffffffffffffffffff82169050919050565b6000610d9582610d6a565b9050919050565b610da581610d8a565b8114610db057600080fd5b50565b600081359050610dc281610d9c565b92915050565b600060208284031215610dde57610ddd610d65565b5b6000610dec84828501610db3565b91505092915050565b6000819050919050565b610e0881610df5565b82525050565b6000602082019050610e236000830184610dff565b92915050565b610e3281610df5565b8114610e3d57600080fd5b50565b600081359050610e4f81610e29565b92915050565b600060208284031215610e6b57610e6a610d65565b5b6000610e7984828501610e40565b91505092915050565b6000819050919050565b6000610ea7610ea2610e9d84610d6a565b610e82565b610d6a565b9050919050565b6000610eb982610e8c565b9050919050565b6000610ecb82610eae565b9050919050565b610edb81610ec0565b82525050565b6000602082019050610ef66000830184610ed2565b92915050565b600082825260208201905092915050565b7f496e73756666696369656e742066756e64730000000000000000000000000000600082015250565b6000610f43601283610efc565b9150610f4e82610f0d565b602082019050919050565b60006020820190508181036000830152610f7281610f36565b9050919050565b7f4e487b7100000000000000000000000000000000000000000000000000000000600052601160045260246000fd5b6000610fb382610df5565b9150610fbe83610df5565b9250828203905081811115610fd657610fd5610f79565b5b92915050565b610fe581610d8a565b82525050565b60006040820190506110006000830185610fdc565b61100d6020830184610dff565b9392505050565b600061101f82610df5565b915061102a83610df5565b925082820190508082111561104257611041610f79565b5b92915050565b600061105382610df5565b915061105e83610df5565b925082820261106c81610df5565b9150828204841483151761108357611082610f79565b5b5092915050565b7f4e487b7100000000000000000000000000000000000000000000000000000000600052601260045260246000fd5b60006110c482610df5565b91506110cf83610df5565b9250826110df576110de61108a565b5b828204905092915050565b60006020820190506110ff6000830184610fdc565b92915050565b60008151905061111481610e29565b92915050565b6000602082840312156111305761112f610d65565b5b600061113e84828501611105565b91505092915050565b600060608201905061115c6000830186610fdc565b6111696020830185610fdc565b6111766040830184610dff565b949350505050565b60008115159050919050565b6111938161117e565b811461119e57600080fd5b50565b6000815190506111b08161118a565b92915050565b6000602082840312156111cc576111cb610d65565b5b60006111da848285016111a1565b91505092915050565b7f5361666545524332303a204552433230206f7065726174696f6e20646964206e60008201527f6f74207375636365656400000000000000000000000000000000000000000000602082015250565b600061123f602a83610efc565b915061124a826111e3565b604082019050919050565b6000602082019050818103600083015261126e81611232565b9050919050565b7f416464726573733a20696e73756666696369656e742062616c616e636520666f60008201527f722063616c6c0000000000000000000000000000000000000000000000000000602082015250565b60006112d1602683610efc565b91506112dc82611275565b604082019050919050565b60006020820190508181036000830152611300816112c4565b9050919050565b600081519050919050565b600081905092915050565b60005b8381101561133b578082015181840152602081019050611320565b60008484015250505050565b600061135282611307565b61135c8185611312565b935061136c81856020860161131d565b80840191505092915050565b60006113848284611347565b915081905092915050565b7f416464726573733a2063616c6c20746f206e6f6e2d636f6e7472616374000000600082015250565b60006113c5601d83610efc565b91506113d08261138f565b602082019050919050565b600060208201905081810360008301526113f4816113b8565b9050919050565b600081519050919050565b6000601f19601f8301169050919050565b6000611422826113fb565b61142c8185610efc565b935061143c81856020860161131d565b61144581611406565b840191505092915050565b6000602082019050818103600083015261146a8184611417565b90509291505056fea2646970667358221220d6e52ee9479bb7490f6b7ed5fc390e480df9c67edbb23de01d6c54ae615fb5ea64736f6c63430008120033",
  "linkReferences": {},
  "deployedLinkReferences": {}
}