{"contracts/ERC20Staking.sol":{"ERC20Staking":{"abi":[{"inputs":[{"internalType":"contract IERC20","name":"_token","type":"address"}],"stateMutability":"nonpayable","type":"constructor"},{"anonymous":false,"inputs":[{"indexed":false,"internalType":"address","name":"account","type":"address"},{"indexed":false,"internalType":"uint256","name":"amount","type":"uint256"}],"name":"Claim","type":"event"},{"anonymous":false,"inputs":[{"indexed":false,"internalType":"address","name":"account","type":"address"},{"indexed":false,"internalType":"uint256","name":"amount","type":"uint256"}],"name":"Compound","type":"event"},{"anonymous":false,"inputs":[{"indexed":false,"internalType":"address","name":"account","type":"address"},{"indexed":false,"internalType":"uint256","name":"amount","type":"uint256"}],"name":"Deposit","type":"event"},{"anonymous":false,"inputs":[{"indexed":false,"internalType":"address","name":"account","type":"address"},{"indexed":false,"internalType":"uint256","name":"amount","type":"uint256"}],"name":"Withdraw","type":"event"},{"inputs":[{"internalType":"address","name":"","type":"address"}],"name":"balanceOf","outputs":[{"internalType":"uint256","name":"","type":"uint256"}],"stateMutability":"view","type":"function"},{"inputs":[],"name":"claim","outputs":[],"stateMutability":"nonpayable","type":"function"},{"inputs":[{"internalType":"address","name":"","type":"address"}],"name":"claimed","outputs":[{"internalType":"uint256","name":"","type":"uint256"}],"stateMutability":"view","type":"function"},{"inputs":[],"name":"compound","outputs":[],"stateMutability":"nonpayable","type":"function"},{"inputs":[{"internalType":"uint256","name":"_amount","type":"uint256"}],"name":"deposit","outputs":[],"stateMutability":"nonpayable","type":"function"},{"inputs":[{"internalType":"address","name":"","type":"address"}],"name":"lastUpdated","outputs":[{"internalType":"uint256","name":"","type":"uint256"}],"stateMutability":"view","type":"function"},{"inputs":[{"internalType":"address","name":"account","type":"address"}],"name":"rewards","outputs":[{"internalType":"uint256","name":"","type":"uint256"}],"stateMutability":"view","type":"function"},{"inputs":[],"name":"rewardsPerHour","outputs":[{"internalType":"uint256","name":"","type":"uint256"}],"stateMutability":"view","type":"function"},{"inputs":[],"name":"token","outputs":[{"internalType":"contract IERC20","name":"","type":"address"}],"stateMutability":"view","type":"function"},{"inputs":[],"name":"totalRewards","outputs":[{"internalType":"uint256","name":"","type":"uint256"}],"stateMutability":"view","type":"function"},{"inputs":[],"name":"totalStaked","outputs":[{"internalType":"uint256","name":"","type":"uint256"}],"stateMutability":"view","type":"function"},{"inputs":[{"internalType":"uint256","name":"amount","type":"uint256"}],"name":"withdraw","outputs":[],"stateMutability":"nonpayable","type":"function"}],"evm":{"bytecode":{"linkReferences":{},"object":"60c060405261271060a090815250600080553480156200001e57600080fd5b5060405162001620380380620016208339818101604052810190620000449190620000fd565b8073ffffffffffffffffffffffffffffffffffffffff1660808173ffffffffffffffffffffffffffffffffffffffff1681525050506200012f565b600080fd5b600073ffffffffffffffffffffffffffffffffffffffff82169050919050565b6000620000b18262000084565b9050919050565b6000620000c582620000a4565b9050919050565b620000d781620000b8565b8114620000e357600080fd5b50565b600081519050620000f781620000cc565b92915050565b6000602082840312156200011657620001156200007f565b5b60006200012684828501620000e6565b91505092915050565b60805160a0516114a8620001786000396000818161054301526106f5015260008181610375015281816104a301528181610575015281816106cc01526107ca01526114a86000f3fe608060405234801561001057600080fd5b50600436106100b45760003560e01c8063817b1cd211610071578063817b1cd21461018d5780638e7271fa146101ab578063b6b55f25146101c9578063c884ef83146101e5578063f69e204614610215578063fc0c546a1461021f576100b4565b80630700037d146100b95780630a6f93e6146100e95780630e15561a146101195780632e1a7d4d146101375780634e71d92d1461015357806370a082311461015d575b600080fd5b6100d360048036038101906100ce9190610dc8565b61023d565b6040516100e09190610e0e565b60405180910390f35b61010360048036038101906100fe9190610dc8565b61024f565b6040516101109190610e0e565b60405180910390f35b610121610267565b60405161012e9190610e0e565b60405180910390f35b610151600480360381019061014c9190610e55565b610276565b005b61015b6103f5565b005b61017760048036038101906101729190610dc8565b610523565b6040516101849190610e0e565b60405180910390f35b61019561053b565b6040516101a29190610e0e565b60405180910390f35b6101b3610541565b6040516101c09190610e0e565b60405180910390f35b6101e360048036038101906101de9190610e55565b610565565b005b6101ff60048036038101906101fa9190610dc8565b6106a8565b60405161020c9190610e0e565b60405180910390f35b61021d6106c0565b005b6102276106ca565b6040516102349190610ee1565b60405180910390f35b6000610248826106ee565b9050919050565b60026020528060005260406000206000915090505481565b60006102716107c4565b905090565b61027e610871565b80600160003373ffffffffffffffffffffffffffffffffffffffff1673ffffffffffffffffffffffffffffffffffffffff168152602001908152602001600020541015610300576040517f08c379a00000000000000000000000000000000000000000000000000000000081526004016102f790610f59565b60405180910390fd5b80600160003373ffffffffffffffffffffffffffffffffffffffff1673ffffffffffffffffffffffffffffffffffffffff168152602001908152602001600020600082825461034f9190610fa8565b92505081905550806000808282546103679190610fa8565b925050819055506103b933827f000000000000000000000000000000000000000000000000000000000000000073ffffffffffffffffffffffffffffffffffffffff166109c29092919063ffffffff16565b7f884edad9ce6fa2440d8a54cc123490eb96d2768479d49ff9c7366125a942436433826040516103ea929190610feb565b60405180910390a150565b6000610400336106ee565b905080600360003373ffffffffffffffffffffffffffffffffffffffff1673ffffffffffffffffffffffffffffffffffffffff16815260200190815260200160002060008282546104519190611014565b9250508190555042600260003373ffffffffffffffffffffffffffffffffffffffff1673ffffffffffffffffffffffffffffffffffffffff168152602001908152602001600020819055506104e733827f000000000000000000000000000000000000000000000000000000000000000073ffffffffffffffffffffffffffffffffffffffff166109c29092919063ffffffff16565b7f47cee97cb7acd717b3c0aa1435d004cd5b3c8c57d70dbceb4e4458bbd60e39d43382604051610518929190610feb565b60405180910390a150565b60016020528060005260406000206000915090505481565b60005481565b7f000000000000000000000000000000000000000000000000000000000000000081565b61056d610871565b6105ba3330837f000000000000000000000000000000000000000000000000000000000000000073ffffffffffffffffffffffffffffffffffffffff16610a48909392919063ffffffff16565b80600160003373ffffffffffffffffffffffffffffffffffffffff1673ffffffffffffffffffffffffffffffffffffffff16815260200190815260200160002060008282546106099190611014565b9250508190555042600260003373ffffffffffffffffffffffffffffffffffffffff1673ffffffffffffffffffffffffffffffffffffffff16815260200190815260200160002081905550806000808282546106659190611014565b925050819055507fe1fffcc4923d04b559f4d29a8bfc6cda04eb5b0d3c460751c2402c5c5cc9109c338260405161069d929190610feb565b60405180910390a150565b60036020528060005260406000206000915090505481565b6106c8610871565b565b7f000000000000000000000000000000000000000000000000000000000000000081565b6000610e107f000000000000000000000000000000000000000000000000000000000000000061071e9190611048565b600160008473ffffffffffffffffffffffffffffffffffffffff1673ffffffffffffffffffffffffffffffffffffffff16815260200190815260200160002054600260008573ffffffffffffffffffffffffffffffffffffffff1673ffffffffffffffffffffffffffffffffffffffff16815260200190815260200160002054426107a99190610fa8565b6107b39190611048565b6107bd91906110b9565b9050919050565b600080547f000000000000000000000000000000000000000000000000000000000000000073ffffffffffffffffffffffffffffffffffffffff166370a08231306040518263ffffffff1660e01b815260040161082191906110ea565b602060405180830381865afa15801561083e573d6000803e3d6000fd5b505050506040513d601f19601f82011682018060405250810190610862919061111a565b61086c9190610fa8565b905090565b600061087c336106ee565b905080600360003373ffffffffffffffffffffffffffffffffffffffff1673ffffffffffffffffffffffffffffffffffffffff16815260200190815260200160002060008282546108cd9190611014565b9250508190555042600260003373ffffffffffffffffffffffffffffffffffffffff1673ffffffffffffffffffffffffffffffffffffffff1681526020019081526020016000208190555080600160003373ffffffffffffffffffffffffffffffffffffffff1673ffffffffffffffffffffffffffffffffffffffff16815260200190815260200160002060008282546109679190611014565b925050819055508060008082825461097f9190611014565b925050819055507f169f1815ebdea059aac3bb00ec9a9594c7a5ffcb64a17e8392b5d84909a1455633826040516109b7929190610feb565b60405180910390a150565b610a438363a9059cbb60e01b84846040516024016109e1929190610feb565b604051602081830303815290604052907bffffffffffffffffffffffffffffffffffffffffffffffffffffffff19166020820180517bffffffffffffffffffffffffffffffffffffffffffffffffffffffff8381831617835250505050610ad1565b505050565b610acb846323b872dd60e01b858585604051602401610a6993929190611147565b604051602081830303815290604052907bffffffffffffffffffffffffffffffffffffffffffffffffffffffff19166020820180517bffffffffffffffffffffffffffffffffffffffffffffffffffffffff8381831617835250505050610ad1565b50505050565b6000610b33826040518060400160405280602081526020017f5361666545524332303a206c6f772d6c6576656c2063616c6c206661696c65648152508573ffffffffffffffffffffffffffffffffffffffff16610b989092919063ffffffff16565b9050600081511115610b935780806020019051810190610b5391906111b6565b610b92576040517f08c379a0000000000000000000000000000000000000000000000000000000008152600401610b8990611255565b60405180910390fd5b5b505050565b6060610ba78484600085610bb0565b90509392505050565b606082471015610bf5576040517f08c379a0000000000000000000000000000000000000000000000000000000008152600401610bec906112e7565b60405180910390fd5b6000808673ffffffffffffffffffffffffffffffffffffffff168587604051610c1e9190611378565b60006040518083038185875af1925050503d8060008114610c5b576040519150601f19603f3d011682016040523d82523d6000602084013e610c60565b606091505b5091509150610c7187838387610c7d565b92505050949350505050565b60608315610cdf576000835103610cd757610c9785610cf2565b610cd6576040517f08c379a0000000000000000000000000000000000000000000000000000000008152600401610ccd906113db565b60405180910390fd5b5b829050610cea565b610ce98383610d15565b5b949350505050565b6000808273ffffffffffffffffffffffffffffffffffffffff163b119050919050565b600082511115610d285781518083602001fd5b806040517f08c379a0000000000000000000000000000000000000000000000000000000008152600401610d5c9190611450565b60405180910390fd5b600080fd5b600073ffffffffffffffffffffffffffffffffffffffff82169050919050565b6000610d9582610d6a565b9050919050565b610da581610d8a565b8114610db057600080fd5b50565b600081359050610dc281610d9c565b92915050565b600060208284031215610dde57610ddd610d65565b5b6000610dec84828501610db3565b91505092915050565b6000819050919050565b610e0881610df5565b82525050565b6000602082019050610e236000830184610dff565b92915050565b610e3281610df5565b8114610e3d57600080fd5b50565b600081359050610e4f81610e29565b92915050565b600060208284031215610e6b57610e6a610d65565b5b6000610e7984828501610e40565b91505092915050565b6000819050919050565b6000610ea7610ea2610e9d84610d6a565b610e82565b610d6a565b9050919050565b6000610eb982610e8c565b9050919050565b6000610ecb82610eae565b9050919050565b610edb81610ec0565b82525050565b6000602082019050610ef66000830184610ed2565b92915050565b600082825260208201905092915050565b7f496e73756666696369656e742066756e64730000000000000000000000000000600082015250565b6000610f43601283610efc565b9150610f4e82610f0d565b602082019050919050565b60006020820190508181036000830152610f7281610f36565b9050919050565b7f4e487b7100000000000000000000000000000000000000000000000000000000600052601160045260246000fd5b6000610fb382610df5565b9150610fbe83610df5565b9250828203905081811115610fd657610fd5610f79565b5b92915050565b610fe581610d8a565b82525050565b60006040820190506110006000830185610fdc565b61100d6020830184610dff565b9392505050565b600061101f82610df5565b915061102a83610df5565b925082820190508082111561104257611041610f79565b5b92915050565b600061105382610df5565b915061105e83610df5565b925082820261106c81610df5565b9150828204841483151761108357611082610f79565b5b5092915050565b7f4e487b7100000000000000000000000000000000000000000000000000000000600052601260045260246000fd5b60006110c482610df5565b91506110cf83610df5565b9250826110df576110de61108a565b5b828204905092915050565b60006020820190506110ff6000830184610fdc565b92915050565b60008151905061111481610e29565b92915050565b6000602082840312156111305761112f610d65565b5b600061113e84828501611105565b91505092915050565b600060608201905061115c6000830186610fdc565b6111696020830185610fdc565b6111766040830184610dff565b949350505050565b60008115159050919050565b6111938161117e565b811461119e57600080fd5b50565b6000815190506111b08161118a565b92915050565b6000602082840312156111cc576111cb610d65565b5b60006111da848285016111a1565b91505092915050565b7f5361666545524332303a204552433230206f7065726174696f6e20646964206e60008201527f6f74207375636365656400000000000000000000000000000000000000000000602082015250565b600061123f602a83610efc565b915061124a826111e3565b604082019050919050565b6000602082019050818103600083015261126e81611232565b9050919050565b7f416464726573733a20696e73756666696369656e742062616c616e636520666f60008201527f722063616c6c0000000000000000000000000000000000000000000000000000602082015250565b60006112d1602683610efc565b91506112dc82611275565b604082019050919050565b60006020820190508181036000830152611300816112c4565b9050919050565b600081519050919050565b600081905092915050565b60005b8381101561133b578082015181840152602081019050611320565b60008484015250505050565b600061135282611307565b61135c8185611312565b935061136c81856020860161131d565b80840191505092915050565b60006113848284611347565b915081905092915050565b7f416464726573733a2063616c6c20746f206e6f6e2d636f6e7472616374000000600082015250565b60006113c5601d83610efc565b91506113d08261138f565b602082019050919050565b600060208201905081810360008301526113f4816113b8565b9050919050565b600081519050919050565b6000601f19601f8301169050919050565b6000611422826113fb565b61142c8185610efc565b935061143c81856020860161131d565b61144581611406565b840191505092915050565b6000602082019050818103600083015261146a8184611417565b90509291505056fea2646970667358221220d6e52ee9479bb7490f6b7ed5fc390e480df9c67edbb23de01d6c54ae615fb5ea64736f6c63430008120033","opcodes":"PUSH1 0xC0 PUSH1 0x40 MSTORE PUSH2 0x2710 PUSH1 0xA0 SWAP1 DUP2 MSTORE POP PUSH1 0x0 DUP1 SSTORE CALLVALUE DUP1 ISZERO PUSH3 0x1E JUMPI PUSH1 0x0 DUP1 REVERT JUMPDEST POP PUSH1 0x40 MLOAD PUSH3 0x1620 CODESIZE SUB DUP1 PUSH3 0x1620 DUP4 CODECOPY DUP2 DUP2 ADD PUSH1 0x40 MSTORE DUP2 ADD SWAP1 PUSH3 0x44 SWAP2 SWAP1 PUSH3 0xFD JUMP JUMPDEST DUP1 PUSH20 0xFFFFFFFFFFFFFFFFFFFFFFFFFFFFFFFFFFFFFFFF AND PUSH1 0x80 DUP2 PUSH20 0xFFFFFFFFFFFFFFFFFFFFFFFFFFFFFFFFFFFFFFFF AND DUP2 MSTORE POP POP POP PUSH3 0x12F JUMP JUMPDEST PUSH1 0x0 DUP1 REVERT JUMPDEST PUSH1 0x0 PUSH20 0xFFFFFFFFFFFFFFFFFFFFFFFFFFFFFFFFFFFFFFFF DUP3 AND SWAP1 POP SWAP2 SWAP1 POP JUMP JUMPDEST PUSH1 0x0 PUSH3 0xB1 DUP3 PUSH3 0x84 JUMP JUMPDEST SWAP1 POP SWAP2 SWAP1 POP JUMP JUMPDEST PUSH1 0x0 PUSH3 0xC5 DUP3 PUSH3 0xA4 JUMP JUMPDEST SWAP1 POP SWAP2 SWAP1 POP JUMP JUMPDEST PUSH3 0xD7 DUP2 PUSH3 0xB8 JUMP JUMPDEST DUP2 EQ PUSH3 0xE3 JUMPI PUSH1 0x0 DUP1 REVERT JUMPDEST POP JUMP JUMPDEST PUSH1 0x0 DUP2 MLOAD SWAP1 POP PUSH3 0xF7 DUP2 PUSH3 0xCC JUMP JUMPDEST SWAP3 SWAP2 POP POP JUMP JUMPDEST PUSH1 0x0 PUSH1 0x20 DUP3 DUP5 SUB SLT ISZERO PUSH3 0x116 JUMPI PUSH3 0x115 PUSH3 0x7F JUMP JUMPDEST JUMPDEST PUSH1 0x0 PUSH3 0x126 DUP5 DUP3 DUP6 ADD PUSH3 0xE6 JUMP JUMPDEST SWAP2 POP POP SWAP3 SWAP2 POP POP JUMP JUMPDEST PUSH1 0x80 MLOAD PUSH1 0xA0 MLOAD PUSH2 0x14A8 PUSH3 0x178 PUSH1 0x0 CODECOPY PUSH1 0x0 DUP2 DUP2 PUSH2 0x543 ADD MSTORE PUSH2 0x6F5 ADD MSTORE PUSH1 0x0 DUP2 DUP2 PUSH2 0x375 ADD MSTORE DUP2 DUP2 PUSH2 0x4A3 ADD MSTORE DUP2 DUP2 PUSH2 0x575 ADD MSTORE DUP2 DUP2 PUSH2 0x6CC ADD MSTORE PUSH2 0x7CA ADD MSTORE PUSH2 0x14A8 PUSH1 0x0 RETURN INVALID PUSH1 0x80 PUSH1 0x40 MSTORE CALLVALUE DUP1 ISZERO PUSH2 0x10 JUMPI PUSH1 0x0 DUP1 REVERT JUMPDEST POP PUSH1 0x4 CALLDATASIZE LT PUSH2 0xB4 JUMPI PUSH1 0x0 CALLDATALOAD PUSH1 0xE0 SHR DUP1 PUSH4 0x817B1CD2 GT PUSH2 0x71 JUMPI DUP1 PUSH4 0x817B1CD2 EQ PUSH2 0x18D JUMPI DUP1 PUSH4 0x8E7271FA EQ PUSH2 0x1AB JUMPI DUP1 PUSH4 0xB6B55F25 EQ PUSH2 0x1C9 JUMPI DUP1 PUSH4 0xC884EF83 EQ PUSH2 0x1E5 JUMPI DUP1 PUSH4 0xF69E2046 EQ PUSH2 0x215 JUMPI DUP1 PUSH4 0xFC0C546A EQ PUSH2 0x21F JUMPI PUSH2 0xB4 JUMP JUMPDEST DUP1 PUSH4 0x700037D EQ PUSH2 0xB9 JUMPI DUP1 PUSH4 0xA6F93E6 EQ PUSH2 0xE9 JUMPI DUP1 PUSH4 0xE15561A EQ PUSH2 0x119 JUMPI DUP1 PUSH4 0x2E1A7D4D EQ PUSH2 0x137 JUMPI DUP1 PUSH4 0x4E71D92D EQ PUSH2 0x153 JUMPI DUP1 PUSH4 0x70A08231 EQ PUSH2 0x15D JUMPI JUMPDEST PUSH1 0x0 DUP1 REVERT JUMPDEST PUSH2 0xD3 PUSH1 0x4 DUP1 CALLDATASIZE SUB DUP2 ADD SWAP1 PUSH2 0xCE SWAP2 SWAP1 PUSH2 0xDC8 JUMP JUMPDEST PUSH2 0x23D JUMP JUMPDEST PUSH1 0x40 MLOAD PUSH2 0xE0 SWAP2 SWAP1 PUSH2 0xE0E JUMP JUMPDEST PUSH1 0x40 MLOAD DUP1 SWAP2 SUB SWAP1 RETURN JUMPDEST PUSH2 0x103 PUSH1 0x4 DUP1 CALLDATASIZE SUB DUP2 ADD SWAP1 PUSH2 0xFE SWAP2 SWAP1 PUSH2 0xDC8 JUMP JUMPDEST PUSH2 0x24F JUMP JUMPDEST PUSH1 0x40 MLOAD PUSH2 0x110 SWAP2 SWAP1 PUSH2 0xE0E JUMP JUMPDEST PUSH1 0x40 MLOAD DUP1 SWAP2 SUB SWAP1 RETURN JUMPDEST PUSH2 0x121 PUSH2 0x267 JUMP JUMPDEST PUSH1 0x40 MLOAD PUSH2 0x12E SWAP2 SWAP1 PUSH2 0xE0E JUMP JUMPDEST PUSH1 0x40 MLOAD DUP1 SWAP2 SUB SWAP1 RETURN JUMPDEST PUSH2 0x151 PUSH1 0x4 DUP1 CALLDATASIZE SUB DUP2 ADD SWAP1 PUSH2 0x14C SWAP2 SWAP1 PUSH2 0xE55 JUMP JUMPDEST PUSH2 0x276 JUMP JUMPDEST STOP JUMPDEST PUSH2 0x15B PUSH2 0x3F5 JUMP JUMPDEST STOP JUMPDEST PUSH2 0x177 PUSH1 0x4 DUP1 CALLDATASIZE SUB DUP2 ADD SWAP1 PUSH2 0x172 SWAP2 SWAP1 PUSH2 0xDC8 JUMP JUMPDEST PUSH2 0x523 JUMP JUMPDEST PUSH1 0x40 MLOAD PUSH2 0x184 SWAP2 SWAP1 PUSH2 0xE0E JUMP JUMPDEST PUSH1 0x40 MLOAD DUP1 SWAP2 SUB SWAP1 RETURN JUMPDEST PUSH2 0x195 PUSH2 0x53B JUMP JUMPDEST PUSH1 0x40 MLOAD PUSH2 0x1A2 SWAP2 SWAP1 PUSH2 0xE0E JUMP JUMPDEST PUSH1 0x40 MLOAD DUP1 SWAP2 SUB SWAP1 RETURN JUMPDEST PUSH2 0x1B3 PUSH2 0x541 JUMP JUMPDEST PUSH1 0x40 MLOAD PUSH2 0x1C0 SWAP2 SWAP1 PUSH2 0xE0E JUMP JUMPDEST PUSH1 0x40 MLOAD DUP1 SWAP2 SUB SWAP1 RETURN JUMPDEST PUSH2 0x1E3 PUSH1 0x4 DUP1 CALLDATASIZE SUB DUP2 ADD SWAP1 PUSH2 0x1DE SWAP2 SWAP1 PUSH2 0xE55 JUMP JUMPDEST PUSH2 0x565 JUMP JUMPDEST STOP JUMPDEST PUSH2 0x1FF PUSH1 0x4 DUP1 CALLDATASIZE SUB DUP2 ADD SWAP1 PUSH2 0x1FA SWAP2 SWAP1 PUSH2 0xDC8 JUMP JUMPDEST PUSH2 0x6A8 JUMP JUMPDEST PUSH1 0x40 MLOAD PUSH2 0x20C SWAP2 SWAP1 PUSH2 0xE0E JUMP JUMPDEST PUSH1 0x40 MLOAD DUP1 SWAP2 SUB SWAP1 RETURN JUMPDEST PUSH2 0x21D PUSH2 0x6C0 JUMP JUMPDEST STOP JUMPDEST PUSH2 0x227 PUSH2 0x6CA JUMP JUMPDEST PUSH1 0x40 MLOAD PUSH2 0x234 SWAP2 SWAP1 PUSH2 0xEE1 JUMP JUMPDEST PUSH1 0x40 MLOAD DUP1 SWAP2 SUB SWAP1 RETURN JUMPDEST PUSH1 0x0 PUSH2 0x248 DUP3 PUSH2 0x6EE JUMP JUMPDEST SWAP1 POP SWAP2 SWAP1 POP JUMP JUMPDEST PUSH1 0x2 PUSH1 0x20 MSTORE DUP1 PUSH1 0x0 MSTORE PUSH1 0x40 PUSH1 0x0 KECCAK256 PUSH1 0x0 SWAP2 POP SWAP1 POP SLOAD DUP2 JUMP JUMPDEST PUSH1 0x0 PUSH2 0x271 PUSH2 0x7C4 JUMP JUMPDEST SWAP1 POP SWAP1 JUMP JUMPDEST PUSH2 0x27E PUSH2 0x871 JUMP JUMPDEST DUP1 PUSH1 0x1 PUSH1 0x0 CALLER PUSH20 0xFFFFFFFFFFFFFFFFFFFFFFFFFFFFFFFFFFFFFFFF AND PUSH20 0xFFFFFFFFFFFFFFFFFFFFFFFFFFFFFFFFFFFFFFFF AND DUP2 MSTORE PUSH1 0x20 ADD SWAP1 DUP2 MSTORE PUSH1 0x20 ADD PUSH1 0x0 KECCAK256 SLOAD LT ISZERO PUSH2 0x300 JUMPI PUSH1 0x40 MLOAD PUSH32 0x8C379A000000000000000000000000000000000000000000000000000000000 DUP2 MSTORE PUSH1 0x4 ADD PUSH2 0x2F7 SWAP1 PUSH2 0xF59 JUMP JUMPDEST PUSH1 0x40 MLOAD DUP1 SWAP2 SUB SWAP1 REVERT JUMPDEST DUP1 PUSH1 0x1 PUSH1 0x0 CALLER PUSH20 0xFFFFFFFFFFFFFFFFFFFFFFFFFFFFFFFFFFFFFFFF AND PUSH20 0xFFFFFFFFFFFFFFFFFFFFFFFFFFFFFFFFFFFFFFFF AND DUP2 MSTORE PUSH1 0x20 ADD SWAP1 DUP2 MSTORE PUSH1 0x20 ADD PUSH1 0x0 KECCAK256 PUSH1 0x0 DUP3 DUP3 SLOAD PUSH2 0x34F SWAP2 SWAP1 PUSH2 0xFA8 JUMP JUMPDEST SWAP3 POP POP DUP2 SWAP1 SSTORE POP DUP1 PUSH1 0x0 DUP1 DUP3 DUP3 SLOAD PUSH2 0x367 SWAP2 SWAP1 PUSH2 0xFA8 JUMP JUMPDEST SWAP3 POP POP DUP2 SWAP1 SSTORE POP PUSH2 0x3B9 CALLER DUP3 PUSH32 0x0 PUSH20 0xFFFFFFFFFFFFFFFFFFFFFFFFFFFFFFFFFFFFFFFF AND PUSH2 0x9C2 SWAP1 SWAP3 SWAP2 SWAP1 PUSH4 0xFFFFFFFF AND JUMP JUMPDEST PUSH32 0x884EDAD9CE6FA2440D8A54CC123490EB96D2768479D49FF9C7366125A9424364 CALLER DUP3 PUSH1 0x40 MLOAD PUSH2 0x3EA SWAP3 SWAP2 SWAP1 PUSH2 0xFEB JUMP JUMPDEST PUSH1 0x40 MLOAD DUP1 SWAP2 SUB SWAP1 LOG1 POP JUMP JUMPDEST PUSH1 0x0 PUSH2 0x400 CALLER PUSH2 0x6EE JUMP JUMPDEST SWAP1 POP DUP1 PUSH1 0x3 PUSH1 0x0 CALLER PUSH20 0xFFFFFFFFFFFFFFFFFFFFFFFFFFFFFFFFFFFFFFFF AND PUSH20 0xFFFFFFFFFFFFFFFFFFFFFFFFFFFFFFFFFFFFFFFF AND DUP2 MSTORE PUSH1 0x20 ADD SWAP1 DUP2 MSTORE PUSH1 0x20 ADD PUSH1 0x0 KECCAK256 PUSH1 0x0 DUP3 DUP3 SLOAD PUSH2 0x451 SWAP2 SWAP1 PUSH2 0x1014 JUMP JUMPDEST SWAP3 POP POP DUP2 SWAP1 SSTORE POP TIMESTAMP PUSH1 0x2 PUSH1 0x0 CALLER PUSH20 0xFFFFFFFFFFFFFFFFFFFFFFFFFFFFFFFFFFFFFFFF AND PUSH20 0xFFFFFFFFFFFFFFFFFFFFFFFFFFFFFFFFFFFFFFFF AND DUP2 MSTORE PUSH1 0x20 ADD SWAP1 DUP2 MSTORE PUSH1 0x20 ADD PUSH1 0x0 KECCAK256 DUP2 SWAP1 SSTORE POP PUSH2 0x4E7 CALLER DUP3 PUSH32 0x0 PUSH20 0xFFFFFFFFFFFFFFFFFFFFFFFFFFFFFFFFFFFFFFFF AND PUSH2 0x9C2 SWAP1 SWAP3 SWAP2 SWAP1 PUSH4 0xFFFFFFFF AND JUMP JUMPDEST PUSH32 0x47CEE97CB7ACD717B3C0AA1435D004CD5B3C8C57D70DBCEB4E4458BBD60E39D4 CALLER DUP3 PUSH1 0x40 MLOAD PUSH2 0x518 SWAP3 SWAP2 SWAP1 PUSH2 0xFEB JUMP JUMPDEST PUSH1 0x40 MLOAD DUP1 SWAP2 SUB SWAP1 LOG1 POP JUMP JUMPDEST PUSH1 0x1 PUSH1 0x20 MSTORE DUP1 PUSH1 0x0 MSTORE PUSH1 0x40 PUSH1 0x0 KECCAK256 PUSH1 0x0 SWAP2 POP SWAP1 POP SLOAD DUP2 JUMP JUMPDEST PUSH1 0x0 SLOAD DUP2 JUMP JUMPDEST PUSH32 0x0 DUP2 JUMP JUMPDEST PUSH2 0x56D PUSH2 0x871 JUMP JUMPDEST PUSH2 0x5BA CALLER ADDRESS DUP4 PUSH32 0x0 PUSH20 0xFFFFFFFFFFFFFFFFFFFFFFFFFFFFFFFFFFFFFFFF AND PUSH2 0xA48 SWAP1 SWAP4 SWAP3 SWAP2 SWAP1 PUSH4 0xFFFFFFFF AND JUMP JUMPDEST DUP1 PUSH1 0x1 PUSH1 0x0 CALLER PUSH20 0xFFFFFFFFFFFFFFFFFFFFFFFFFFFFFFFFFFFFFFFF AND PUSH20 0xFFFFFFFFFFFFFFFFFFFFFFFFFFFFFFFFFFFFFFFF AND DUP2 MSTORE PUSH1 0x20 ADD SWAP1 DUP2 MSTORE PUSH1 0x20 ADD PUSH1 0x0 KECCAK256 PUSH1 0x0 DUP3 DUP3 SLOAD PUSH2 0x609 SWAP2 SWAP1 PUSH2 0x1014 JUMP JUMPDEST SWAP3 POP POP DUP2 SWAP1 SSTORE POP TIMESTAMP PUSH1 0x2 PUSH1 0x0 CALLER PUSH20 0xFFFFFFFFFFFFFFFFFFFFFFFFFFFFFFFFFFFFFFFF AND PUSH20 0xFFFFFFFFFFFFFFFFFFFFFFFFFFFFFFFFFFFFFFFF AND DUP2 MSTORE PUSH1 0x20 ADD SWAP1 DUP2 MSTORE PUSH1 0x20 ADD PUSH1 0x0 KECCAK256 DUP2 SWAP1 SSTORE POP DUP1 PUSH1 0x0 DUP1 DUP3 DUP3 SLOAD PUSH2 0x665 SWAP2 SWAP1 PUSH2 0x1014 JUMP JUMPDEST SWAP3 POP POP DUP2 SWAP1 SSTORE POP PUSH32 0xE1FFFCC4923D04B559F4D29A8BFC6CDA04EB5B0D3C460751C2402C5C5CC9109C CALLER DUP3 PUSH1 0x40 MLOAD PUSH2 0x69D SWAP3 SWAP2 SWAP1 PUSH2 0xFEB JUMP JUMPDEST PUSH1 0x40 MLOAD DUP1 SWAP2 SUB SWAP1 LOG1 POP JUMP JUMPDEST PUSH1 0x3 PUSH1 0x20 MSTORE DUP1 PUSH1 0x0 MSTORE PUSH1 0x40 PUSH1 0x0 KECCAK256 PUSH1 0x0 SWAP2 POP SWAP1 POP SLOAD DUP2 JUMP JUMPDEST PUSH2 0x6C8 PUSH2 0x871 JUMP JUMPDEST JUMP JUMPDEST PUSH32 0x0 DUP2 JUMP JUMPDEST PUSH1 0x0 PUSH2 0xE10 PUSH32 0x0 PUSH2 0x71E SWAP2 SWAP1 PUSH2 0x1048 JUMP JUMPDEST PUSH1 0x1 PUSH1 0x0 DUP5 PUSH20 0xFFFFFFFFFFFFFFFFFFFFFFFFFFFFFFFFFFFFFFFF AND PUSH20 0xFFFFFFFFFFFFFFFFFFFFFFFFFFFFFFFFFFFFFFFF AND DUP2 MSTORE PUSH1 0x20 ADD SWAP1 DUP2 MSTORE PUSH1 0x20 ADD PUSH1 0x0 KECCAK256 SLOAD PUSH1 0x2 PUSH1 0x0 DUP6 PUSH20 0xFFFFFFFFFFFFFFFFFFFFFFFFFFFFFFFFFFFFFFFF AND PUSH20 0xFFFFFFFFFFFFFFFFFFFFFFFFFFFFFFFFFFFFFFFF AND DUP2 MSTORE PUSH1 0x20 ADD SWAP1 DUP2 MSTORE PUSH1 0x20 ADD PUSH1 0x0 KECCAK256 SLOAD TIMESTAMP PUSH2 0x7A9 SWAP2 SWAP1 PUSH2 0xFA8 JUMP JUMPDEST PUSH2 0x7B3 SWAP2 SWAP1 PUSH2 0x1048 JUMP JUMPDEST PUSH2 0x7BD SWAP2 SWAP1 PUSH2 0x10B9 JUMP JUMPDEST SWAP1 POP SWAP2 SWAP1 POP JUMP JUMPDEST PUSH1 0x0 DUP1 SLOAD PUSH32 0x0 PUSH20 0xFFFFFFFFFFFFFFFFFFFFFFFFFFFFFFFFFFFFFFFF AND PUSH4 0x70A08231 ADDRESS PUSH1 0x40 MLOAD DUP3 PUSH4 0xFFFFFFFF AND PUSH1 0xE0 SHL DUP2 MSTORE PUSH1 0x4 ADD PUSH2 0x821 SWAP2 SWAP1 PUSH2 0x10EA JUMP JUMPDEST PUSH1 0x20 PUSH1 0x40 MLOAD DUP1 DUP4 SUB DUP2 DUP7 GAS STATICCALL ISZERO DUP1 ISZERO PUSH2 0x83E JUMPI RETURNDATASIZE PUSH1 0x0 DUP1 RETURNDATACOPY RETURNDATASIZE PUSH1 0x0 REVERT JUMPDEST POP POP POP POP PUSH1 0x40 MLOAD RETURNDATASIZE PUSH1 0x1F NOT PUSH1 0x1F DUP3 ADD AND DUP3 ADD DUP1 PUSH1 0x40 MSTORE POP DUP2 ADD SWAP1 PUSH2 0x862 SWAP2 SWAP1 PUSH2 0x111A JUMP JUMPDEST PUSH2 0x86C SWAP2 SWAP1 PUSH2 0xFA8 JUMP JUMPDEST SWAP1 POP SWAP1 JUMP JUMPDEST PUSH1 0x0 PUSH2 0x87C CALLER PUSH2 0x6EE JUMP JUMPDEST SWAP1 POP DUP1 PUSH1 0x3 PUSH1 0x0 CALLER PUSH20 0xFFFFFFFFFFFFFFFFFFFFFFFFFFFFFFFFFFFFFFFF AND PUSH20 0xFFFFFFFFFFFFFFFFFFFFFFFFFFFFFFFFFFFFFFFF AND DUP2 MSTORE PUSH1 0x20 ADD SWAP1 DUP2 MSTORE PUSH1 0x20 ADD PUSH1 0x0 KECCAK256 PUSH1 0x0 DUP3 DUP3 SLOAD PUSH2 0x8CD SWAP2 SWAP1 PUSH2 0x1014 JUMP JUMPDEST SWAP3 POP POP DUP2 SWAP1 SSTORE POP TIMESTAMP PUSH1 0x2 PUSH1 0x0 CALLER PUSH20 0xFFFFFFFFFFFFFFFFFFFFFFFFFFFFFFFFFFFFFFFF AND PUSH20 0xFFFFFFFFFFFFFFFFFFFFFFFFFFFFFFFFFFFFFFFF AND DUP2 MSTORE PUSH1 0x20 ADD SWAP1 DUP2 MSTORE PUSH1 0x20 ADD PUSH1 0x0 KECCAK256 DUP2 SWAP1 SSTORE POP DUP1 PUSH1 0x1 PUSH1 0x0 CALLER PUSH20 0xFFFFFFFFFFFFFFFFFFFFFFFFFFFFFFFFFFFFFFFF AND PUSH20 0xFFFFFFFFFFFFFFFFFFFFFFFFFFFFFFFFFFFFFFFF AND DUP2 MSTORE PUSH1 0x20 ADD SWAP1 DUP2 MSTORE PUSH1 0x20 ADD PUSH1 0x0 KECCAK256 PUSH1 0x0 DUP3 DUP3 SLOAD PUSH2 0x967 SWAP2 SWAP1 PUSH2 0x1014 JUMP JUMPDEST SWAP3 POP POP DUP2 SWAP1 SSTORE POP DUP1 PUSH1 0x0 DUP1 DUP3 DUP3 SLOAD PUSH2 0x97F SWAP2 SWAP1 PUSH2 0x1014 JUMP JUMPDEST SWAP3 POP POP DUP2 SWAP1 SSTORE POP PUSH32 0x169F1815EBDEA059AAC3BB00EC9A9594C7A5FFCB64A17E8392B5D84909A14556 CALLER DUP3 PUSH1 0x40 MLOAD PUSH2 0x9B7 SWAP3 SWAP2 SWAP1 PUSH2 0xFEB JUMP JUMPDEST PUSH1 0x40 MLOAD DUP1 SWAP2 SUB SWAP1 LOG1 POP JUMP JUMPDEST PUSH2 0xA43 DUP4 PUSH4 0xA9059CBB PUSH1 0xE0 SHL DUP5 DUP5 PUSH1 0x40 MLOAD PUSH1 0x24 ADD PUSH2 0x9E1 SWAP3 SWAP2 SWAP1 PUSH2 0xFEB JUMP JUMPDEST PUSH1 0x40 MLOAD PUSH1 0x20 DUP2 DUP4 SUB SUB DUP2 MSTORE SWAP1 PUSH1 0x40 MSTORE SWAP1 PUSH28 0xFFFFFFFFFFFFFFFFFFFFFFFFFFFFFFFFFFFFFFFFFFFFFFFFFFFFFFFF NOT AND PUSH1 0x20 DUP3 ADD DUP1 MLOAD PUSH28 0xFFFFFFFFFFFFFFFFFFFFFFFFFFFFFFFFFFFFFFFFFFFFFFFFFFFFFFFF DUP4 DUP2 DUP4 AND OR DUP4 MSTORE POP POP POP POP PUSH2 0xAD1 JUMP JUMPDEST POP POP POP JUMP JUMPDEST PUSH2 0xACB DUP5 PUSH4 0x23B872DD PUSH1 0xE0 SHL DUP6 DUP6 DUP6 PUSH1 0x40 MLOAD PUSH1 0x24 ADD PUSH2 0xA69 SWAP4 SWAP3 SWAP2 SWAP1 PUSH2 0x1147 JUMP JUMPDEST PUSH1 0x40 MLOAD PUSH1 0x20 DUP2 DUP4 SUB SUB DUP2 MSTORE SWAP1 PUSH1 0x40 MSTORE SWAP1 PUSH28 0xFFFFFFFFFFFFFFFFFFFFFFFFFFFFFFFFFFFFFFFFFFFFFFFFFFFFFFFF NOT AND PUSH1 0x20 DUP3 ADD DUP1 MLOAD PUSH28 0xFFFFFFFFFFFFFFFFFFFFFFFFFFFFFFFFFFFFFFFFFFFFFFFFFFFFFFFF DUP4 DUP2 DUP4 AND OR DUP4 MSTORE POP POP POP POP PUSH2 0xAD1 JUMP JUMPDEST POP POP POP POP JUMP JUMPDEST PUSH1 0x0 PUSH2 0xB33 DUP3 PUSH1 0x40 MLOAD DUP1 PUSH1 0x40 ADD PUSH1 0x40 MSTORE DUP1 PUSH1 0x20 DUP2 MSTORE PUSH1 0x20 ADD PUSH32 0x5361666545524332303A206C6F772D6C6576656C2063616C6C206661696C6564 DUP2 MSTORE POP DUP6 PUSH20 0xFFFFFFFFFFFFFFFFFFFFFFFFFFFFFFFFFFFFFFFF AND PUSH2 0xB98 SWAP1 SWAP3 SWAP2 SWAP1 PUSH4 0xFFFFFFFF AND JUMP JUMPDEST SWAP1 POP PUSH1 0x0 DUP2 MLOAD GT ISZERO PUSH2 0xB93 JUMPI DUP1 DUP1 PUSH1 0x20 ADD SWAP1 MLOAD DUP2 ADD SWAP1 PUSH2 0xB53 SWAP2 SWAP1 PUSH2 0x11B6 JUMP JUMPDEST PUSH2 0xB92 JUMPI PUSH1 0x40 MLOAD PUSH32 0x8C379A000000000000000000000000000000000000000000000000000000000 DUP2 MSTORE PUSH1 0x4 ADD PUSH2 0xB89 SWAP1 PUSH2 0x1255 JUMP JUMPDEST PUSH1 0x40 MLOAD DUP1 SWAP2 SUB SWAP1 REVERT JUMPDEST JUMPDEST POP POP POP JUMP JUMPDEST PUSH1 0x60 PUSH2 0xBA7 DUP5 DUP5 PUSH1 0x0 DUP6 PUSH2 0xBB0 JUMP JUMPDEST SWAP1 POP SWAP4 SWAP3 POP POP POP JUMP JUMPDEST PUSH1 0x60 DUP3 SELFBALANCE LT ISZERO PUSH2 0xBF5 JUMPI PUSH1 0x40 MLOAD PUSH32 0x8C379A000000000000000000000000000000000000000000000000000000000 DUP2 MSTORE PUSH1 0x4 ADD PUSH2 0xBEC SWAP1 PUSH2 0x12E7 JUMP JUMPDEST PUSH1 0x40 MLOAD DUP1 SWAP2 SUB SWAP1 REVERT JUMPDEST PUSH1 0x0 DUP1 DUP7 PUSH20 0xFFFFFFFFFFFFFFFFFFFFFFFFFFFFFFFFFFFFFFFF AND DUP6 DUP8 PUSH1 0x40 MLOAD PUSH2 0xC1E SWAP2 SWAP1 PUSH2 0x1378 JUMP JUMPDEST PUSH1 0x0 PUSH1 0x40 MLOAD DUP1 DUP4 SUB DUP2 DUP6 DUP8 GAS CALL SWAP3 POP POP POP RETURNDATASIZE DUP1 PUSH1 0x0 DUP2 EQ PUSH2 0xC5B JUMPI PUSH1 0x40 MLOAD SWAP2 POP PUSH1 0x1F NOT PUSH1 0x3F RETURNDATASIZE ADD AND DUP3 ADD PUSH1 0x40 MSTORE RETURNDATASIZE DUP3 MSTORE RETURNDATASIZE PUSH1 0x0 PUSH1 0x20 DUP5 ADD RETURNDATACOPY PUSH2 0xC60 JUMP JUMPDEST PUSH1 0x60 SWAP2 POP JUMPDEST POP SWAP2 POP SWAP2 POP PUSH2 0xC71 DUP8 DUP4 DUP4 DUP8 PUSH2 0xC7D JUMP JUMPDEST SWAP3 POP POP POP SWAP5 SWAP4 POP POP POP POP JUMP JUMPDEST PUSH1 0x60 DUP4 ISZERO PUSH2 0xCDF JUMPI PUSH1 0x0 DUP4 MLOAD SUB PUSH2 0xCD7 JUMPI PUSH2 0xC97 DUP6 PUSH2 0xCF2 JUMP JUMPDEST PUSH2 0xCD6 JUMPI PUSH1 0x40 MLOAD PUSH32 0x8C379A000000000000000000000000000000000000000000000000000000000 DUP2 MSTORE PUSH1 0x4 ADD PUSH2 0xCCD SWAP1 PUSH2 0x13DB JUMP JUMPDEST PUSH1 0x40 MLOAD DUP1 SWAP2 SUB SWAP1 REVERT JUMPDEST JUMPDEST DUP3 SWAP1 POP PUSH2 0xCEA JUMP JUMPDEST PUSH2 0xCE9 DUP4 DUP4 PUSH2 0xD15 JUMP JUMPDEST JUMPDEST SWAP5 SWAP4 POP POP POP POP JUMP JUMPDEST PUSH1 0x0 DUP1 DUP3 PUSH20 0xFFFFFFFFFFFFFFFFFFFFFFFFFFFFFFFFFFFFFFFF AND EXTCODESIZE GT SWAP1 POP SWAP2 SWAP1 POP JUMP JUMPDEST PUSH1 0x0 DUP3 MLOAD GT ISZERO PUSH2 0xD28 JUMPI DUP2 MLOAD DUP1 DUP4 PUSH1 0x20 ADD REVERT JUMPDEST DUP1 PUSH1 0x40 MLOAD PUSH32 0x8C379A000000000000000000000000000000000000000000000000000000000 DUP2 MSTORE PUSH1 0x4 ADD PUSH2 0xD5C SWAP2 SWAP1 PUSH2 0x1450 JUMP JUMPDEST PUSH1 0x40 MLOAD DUP1 SWAP2 SUB SWAP1 REVERT JUMPDEST PUSH1 0x0 DUP1 REVERT JUMPDEST PUSH1 0x0 PUSH20 0xFFFFFFFFFFFFFFFFFFFFFFFFFFFFFFFFFFFFFFFF DUP3 AND SWAP1 POP SWAP2 SWAP1 POP JUMP JUMPDEST PUSH1 0x0 PUSH2 0xD95 DUP3 PUSH2 0xD6A JUMP JUMPDEST SWAP1 POP SWAP2 SWAP1 POP JUMP JUMPDEST PUSH2 0xDA5 DUP2 PUSH2 0xD8A JUMP JUMPDEST DUP2 EQ PUSH2 0xDB0 JUMPI PUSH1 0x0 DUP1 REVERT JUMPDEST POP JUMP JUMPDEST PUSH1 0x0 DUP2 CALLDATALOAD SWAP1 POP PUSH2 0xDC2 DUP2 PUSH2 0xD9C JUMP JUMPDEST SWAP3 SWAP2 POP POP JUMP JUMPDEST PUSH1 0x0 PUSH1 0x20 DUP3 DUP5 SUB SLT ISZERO PUSH2 0xDDE JUMPI PUSH2 0xDDD PUSH2 0xD65 JUMP JUMPDEST JUMPDEST PUSH1 0x0 PUSH2 0xDEC DUP5 DUP3 DUP6 ADD PUSH2 0xDB3 JUMP JUMPDEST SWAP2 POP POP SWAP3 SWAP2 POP POP JUMP JUMPDEST PUSH1 0x0 DUP2 SWAP1 POP SWAP2 SWAP1 POP JUMP JUMPDEST PUSH2 0xE08 DUP2 PUSH2 0xDF5 JUMP JUMPDEST DUP3 MSTORE POP POP JUMP JUMPDEST PUSH1 0x0 PUSH1 0x20 DUP3 ADD SWAP1 POP PUSH2 0xE23 PUSH1 0x0 DUP4 ADD DUP5 PUSH2 0xDFF JUMP JUMPDEST SWAP3 SWAP2 POP POP JUMP JUMPDEST PUSH2 0xE32 DUP2 PUSH2 0xDF5 JUMP JUMPDEST DUP2 EQ PUSH2 0xE3D JUMPI PUSH1 0x0 DUP1 REVERT JUMPDEST POP JUMP JUMPDEST PUSH1 0x0 DUP2 CALLDATALOAD SWAP1 POP PUSH2 0xE4F DUP2 PUSH2 0xE29 JUMP JUMPDEST SWAP3 SWAP2 POP POP JUMP JUMPDEST PUSH1 0x0 PUSH1 0x20 DUP3 DUP5 SUB SLT ISZERO PUSH2 0xE6B JUMPI PUSH2 0xE6A PUSH2 0xD65 JUMP JUMPDEST JUMPDEST PUSH1 0x0 PUSH2 0xE79 DUP5 DUP3 DUP6 ADD PUSH2 0xE40 JUMP JUMPDEST SWAP2 POP POP SWAP3 SWAP2 POP POP JUMP JUMPDEST PUSH1 0x0 DUP2 SWAP1 POP SWAP2 SWAP1 POP JUMP JUMPDEST PUSH1 0x0 PUSH2 0xEA7 PUSH2 0xEA2 PUSH2 0xE9D DUP5 PUSH2 0xD6A JUMP JUMPDEST PUSH2 0xE82 JUMP JUMPDEST PUSH2 0xD6A JUMP JUMPDEST SWAP1 POP SWAP2 SWAP1 POP JUMP JUMPDEST PUSH1 0x0 PUSH2 0xEB9 DUP3 PUSH2 0xE8C JUMP JUMPDEST SWAP1 POP SWAP2 SWAP1 POP JUMP JUMPDEST PUSH1 0x0 PUSH2 0xECB DUP3 PUSH2 0xEAE JUMP JUMPDEST SWAP1 POP SWAP2 SWAP1 POP JUMP JUMPDEST PUSH2 0xEDB DUP2 PUSH2 0xEC0 JUMP JUMPDEST DUP3 MSTORE POP POP JUMP JUMPDEST PUSH1 0x0 PUSH1 0x20 DUP3 ADD SWAP1 POP PUSH2 0xEF6 PUSH1 0x0 DUP4 ADD DUP5 PUSH2 0xED2 JUMP JUMPDEST SWAP3 SWAP2 POP POP JUMP JUMPDEST PUSH1 0x0 DUP3 DUP3 MSTORE PUSH1 0x20 DUP3 ADD SWAP1 POP SWAP3 SWAP2 POP POP JUMP JUMPDEST PUSH32 0x496E73756666696369656E742066756E64730000000000000000000000000000 PUSH1 0x0 DUP3 ADD MSTORE POP JUMP JUMPDEST PUSH1 0x0 PUSH2 0xF43 PUSH1 0x12 DUP4 PUSH2 0xEFC JUMP JUMPDEST SWAP2 POP PUSH2 0xF4E DUP3 PUSH2 0xF0D JUMP JUMPDEST PUSH1 0x20 DUP3 ADD SWAP1 POP SWAP2 SWAP1 POP JUMP JUMPDEST PUSH1 0x0 PUSH1 0x20 DUP3 ADD SWAP1 POP DUP2 DUP2 SUB PUSH1 0x0 DUP4 ADD MSTORE PUSH2 0xF72 DUP2 PUSH2 0xF36 JUMP JUMPDEST SWAP1 POP SWAP2 SWAP1 POP JUMP JUMPDEST PUSH32 0x4E487B7100000000000000000000000000000000000000000000000000000000 PUSH1 0x0 MSTORE PUSH1 0x11 PUSH1 0x4 MSTORE PUSH1 0x24 PUSH1 0x0 REVERT JUMPDEST PUSH1 0x0 PUSH2 0xFB3 DUP3 PUSH2 0xDF5 JUMP JUMPDEST SWAP2 POP PUSH2 0xFBE DUP4 PUSH2 0xDF5 JUMP JUMPDEST SWAP3 POP DUP3 DUP3 SUB SWAP1 POP DUP2 DUP2 GT ISZERO PUSH2 0xFD6 JUMPI PUSH2 0xFD5 PUSH2 0xF79 JUMP JUMPDEST JUMPDEST SWAP3 SWAP2 POP POP JUMP JUMPDEST PUSH2 0xFE5 DUP2 PUSH2 0xD8A JUMP JUMPDEST DUP3 MSTORE POP POP JUMP JUMPDEST PUSH1 0x0 PUSH1 0x40 DUP3 ADD SWAP1 POP PUSH2 0x1000 PUSH1 0x0 DUP4 ADD DUP6 PUSH2 0xFDC JUMP JUMPDEST PUSH2 0x100D PUSH1 0x20 DUP4 ADD DUP5 PUSH2 0xDFF JUMP JUMPDEST SWAP4 SWAP3 POP POP POP JUMP JUMPDEST PUSH1 0x0 PUSH2 0x101F DUP3 PUSH2 0xDF5 JUMP JUMPDEST SWAP2 POP PUSH2 0x102A DUP4 PUSH2 0xDF5 JUMP JUMPDEST SWAP3 POP DUP3 DUP3 ADD SWAP1 POP DUP1 DUP3 GT ISZERO PUSH2 0x1042 JUMPI PUSH2 0x1041 PUSH2 0xF79 JUMP JUMPDEST JUMPDEST SWAP3 SWAP2 POP POP JUMP JUMPDEST PUSH1 0x0 PUSH2 0x1053 DUP3 PUSH2 0xDF5 JUMP JUMPDEST SWAP2 POP PUSH2 0x105E DUP4 PUSH2 0xDF5 JUMP JUMPDEST SWAP3 POP DUP3 DUP3 MUL PUSH2 0x106C DUP2 PUSH2 0xDF5 JUMP JUMPDEST SWAP2 POP DUP3 DUP3 DIV DUP5 EQ DUP4 ISZERO OR PUSH2 0x1083 JUMPI PUSH2 0x1082 PUSH2 0xF79 JUMP JUMPDEST JUMPDEST POP SWAP3 SWAP2 POP POP JUMP JUMPDEST PUSH32 0x4E487B7100000000000000000000000000000000000000000000000000000000 PUSH1 0x0 MSTORE PUSH1 0x12 PUSH1 0x4 MSTORE PUSH1 0x24 PUSH1 0x0 REVERT JUMPDEST PUSH1 0x0 PUSH2 0x10C4 DUP3 PUSH2 0xDF5 JUMP JUMPDEST SWAP2 POP PUSH2 0x10CF DUP4 PUSH2 0xDF5 JUMP JUMPDEST SWAP3 POP DUP3 PUSH2 0x10DF JUMPI PUSH2 0x10DE PUSH2 0x108A JUMP JUMPDEST JUMPDEST DUP3 DUP3 DIV SWAP1 POP SWAP3 SWAP2 POP POP JUMP JUMPDEST PUSH1 0x0 PUSH1 0x20 DUP3 ADD SWAP1 POP PUSH2 0x10FF PUSH1 0x0 DUP4 ADD DUP5 PUSH2 0xFDC JUMP JUMPDEST SWAP3 SWAP2 POP POP JUMP JUMPDEST PUSH1 0x0 DUP2 MLOAD SWAP1 POP PUSH2 0x1114 DUP2 PUSH2 0xE29 JUMP JUMPDEST SWAP3 SWAP2 POP POP JUMP JUMPDEST PUSH1 0x0 PUSH1 0x20 DUP3 DUP5 SUB SLT ISZERO PUSH2 0x1130 JUMPI PUSH2 0x112F PUSH2 0xD65 JUMP JUMPDEST JUMPDEST PUSH1 0x0 PUSH2 0x113E DUP5 DUP3 DUP6 ADD PUSH2 0x1105 JUMP JUMPDEST SWAP2 POP POP SWAP3 SWAP2 POP POP JUMP JUMPDEST PUSH1 0x0 PUSH1 0x60 DUP3 ADD SWAP1 POP PUSH2 0x115C PUSH1 0x0 DUP4 ADD DUP7 PUSH2 0xFDC JUMP JUMPDEST PUSH2 0x1169 PUSH1 0x20 DUP4 ADD DUP6 PUSH2 0xFDC JUMP JUMPDEST PUSH2 0x1176 PUSH1 0x40 DUP4 ADD DUP5 PUSH2 0xDFF JUMP JUMPDEST SWAP5 SWAP4 POP POP POP POP JUMP JUMPDEST PUSH1 0x0 DUP2 ISZERO ISZERO SWAP1 POP SWAP2 SWAP1 POP JUMP JUMPDEST PUSH2 0x1193 DUP2 PUSH2 0x117E JUMP JUMPDEST DUP2 EQ PUSH2 0x119E JUMPI PUSH1 0x0 DUP1 REVERT JUMPDEST POP JUMP JUMPDEST PUSH1 0x0 DUP2 MLOAD SWAP1 POP PUSH2 0x11B0 DUP2 PUSH2 0x118A JUMP JUMPDEST SWAP3 SWAP2 POP POP JUMP JUMPDEST PUSH1 0x0 PUSH1 0x20 DUP3 DUP5 SUB SLT ISZERO PUSH2 0x11CC JUMPI PUSH2 0x11CB PUSH2 0xD65 JUMP JUMPDEST JUMPDEST PUSH1 0x0 PUSH2 0x11DA DUP5 DUP3 DUP6 ADD PUSH2 0x11A1 JUMP JUMPDEST SWAP2 POP POP SWAP3 SWAP2 POP POP JUMP JUMPDEST PUSH32 0x5361666545524332303A204552433230206F7065726174696F6E20646964206E PUSH1 0x0 DUP3 ADD MSTORE PUSH32 0x6F74207375636365656400000000000000000000000000000000000000000000 PUSH1 0x20 DUP3 ADD MSTORE POP JUMP JUMPDEST PUSH1 0x0 PUSH2 0x123F PUSH1 0x2A DUP4 PUSH2 0xEFC JUMP JUMPDEST SWAP2 POP PUSH2 0x124A DUP3 PUSH2 0x11E3 JUMP JUMPDEST PUSH1 0x40 DUP3 ADD SWAP1 POP SWAP2 SWAP1 POP JUMP JUMPDEST PUSH1 0x0 PUSH1 0x20 DUP3 ADD SWAP1 POP DUP2 DUP2 SUB PUSH1 0x0 DUP4 ADD MSTORE PUSH2 0x126E DUP2 PUSH2 0x1232 JUMP JUMPDEST SWAP1 POP SWAP2 SWAP1 POP JUMP JUMPDEST PUSH32 0x416464726573733A20696E73756666696369656E742062616C616E636520666F PUSH1 0x0 DUP3 ADD MSTORE PUSH32 0x722063616C6C0000000000000000000000000000000000000000000000000000 PUSH1 0x20 DUP3 ADD MSTORE POP JUMP JUMPDEST PUSH1 0x0 PUSH2 0x12D1 PUSH1 0x26 DUP4 PUSH2 0xEFC JUMP JUMPDEST SWAP2 POP PUSH2 0x12DC DUP3 PUSH2 0x1275 JUMP JUMPDEST PUSH1 0x40 DUP3 ADD SWAP1 POP SWAP2 SWAP1 POP JUMP JUMPDEST PUSH1 0x0 PUSH1 0x20 DUP3 ADD SWAP1 POP DUP2 DUP2 SUB PUSH1 0x0 DUP4 ADD MSTORE PUSH2 0x1300 DUP2 PUSH2 0x12C4 JUMP JUMPDEST SWAP1 POP SWAP2 SWAP1 POP JUMP JUMPDEST PUSH1 0x0 DUP2 MLOAD SWAP1 POP SWAP2 SWAP1 POP JUMP JUMPDEST PUSH1 0x0 DUP2 SWAP1 POP SWAP3 SWAP2 POP POP JUMP JUMPDEST PUSH1 0x0 JUMPDEST DUP4 DUP2 LT ISZERO PUSH2 0x133B JUMPI DUP1 DUP3 ADD MLOAD DUP2 DUP5 ADD MSTORE PUSH1 0x20 DUP2 ADD SWAP1 POP PUSH2 0x1320 JUMP JUMPDEST PUSH1 0x0 DUP5 DUP5 ADD MSTORE POP POP POP POP JUMP JUMPDEST PUSH1 0x0 PUSH2 0x1352 DUP3 PUSH2 0x1307 JUMP JUMPDEST PUSH2 0x135C DUP2 DUP6 PUSH2 0x1312 JUMP JUMPDEST SWAP4 POP PUSH2 0x136C DUP2 DUP6 PUSH1 0x20 DUP7 ADD PUSH2 0x131D JUMP JUMPDEST DUP1 DUP5 ADD SWAP2 POP POP SWAP3 SWAP2 POP POP JUMP JUMPDEST PUSH1 0x0 PUSH2 0x1384 DUP3 DUP5 PUSH2 0x1347 JUMP JUMPDEST SWAP2 POP DUP2 SWAP1 POP SWAP3 SWAP2 POP POP JUMP JUMPDEST PUSH32 0x416464726573733A2063616C6C20746F206E6F6E2D636F6E7472616374000000 PUSH1 0x0 DUP3 ADD MSTORE POP JUMP JUMPDEST PUSH1 0x0 PUSH2 0x13C5 PUSH1 0x1D DUP4 PUSH2 0xEFC JUMP JUMPDEST SWAP2 POP PUSH2 0x13D0 DUP3 PUSH2 0x138F JUMP JUMPDEST PUSH1 0x20 DUP3 ADD SWAP1 POP SWAP2 SWAP1 POP JUMP JUMPDEST PUSH1 0x0 PUSH1 0x20 DUP3 ADD SWAP1 POP DUP2 DUP2 SUB PUSH1 0x0 DUP4 ADD MSTORE PUSH2 0x13F4 DUP2 PUSH2 0x13B8 JUMP JUMPDEST SWAP1 POP SWAP2 SWAP1 POP JUMP JUMPDEST PUSH1 0x0 DUP2 MLOAD SWAP1 POP SWAP2 SWAP1 POP JUMP JUMPDEST PUSH1 0x0 PUSH1 0x1F NOT PUSH1 0x1F DUP4 ADD AND SWAP1 POP SWAP2 SWAP1 POP JUMP JUMPDEST PUSH1 0x0 PUSH2 0x1422 DUP3 PUSH2 0x13FB JUMP JUMPDEST PUSH2 0x142C DUP2 DUP6 PUSH2 0xEFC JUMP JUMPDEST SWAP4 POP PUSH2 0x143C DUP2 DUP6 PUSH1 0x20 DUP7 ADD PUSH2 0x131D JUMP JUMPDEST PUSH2 0x1445 DUP2 PUSH2 0x1406 JUMP JUMPDEST DUP5 ADD SWAP2 POP POP SWAP3 SWAP2 POP POP JUMP JUMPDEST PUSH1 0x0 PUSH1 0x20 DUP3 ADD SWAP1 POP DUP2 DUP2 SUB PUSH1 0x0 DUP4 ADD MSTORE PUSH2 0x146A DUP2 DUP5 PUSH2 0x1417 JUMP JUMPDEST SWAP1 POP SWAP3 SWAP2 POP POP JUMP INVALID LOG2 PUSH5 0x6970667358 0x22 SLT KECCAK256 0xD6 0xE5 0x2E 0xE9 SELFBALANCE SWAP12 0xB7 0x49 0xF PUSH12 0x7ED5FC390E480DF9C67EDBB2 RETURNDATASIZE 0xE0 SAR PUSH13 0x54AE615FB5EA64736F6C634300 ADDMOD SLT STOP CALLER "},"methodIdentifiers":{"balanceOf(address)":"70a08231","claim()":"4e71d92d","claimed(address)":"c884ef83","compound()":"f69e2046","deposit(uint256)":"b6b55f25","lastUpdated(address)":"0a6f93e6","rewards(address)":"0700037d","rewardsPerHour()":"8e7271fa","token()":"fc0c546a","totalRewards()":"0e15561a","totalStaked()":"817b1cd2","withdraw(uint256)":"2e1a7d4d"}}}}}